{
  "_format": "hh-sol-artifact-1",
  "contractName": "Coin",
  "sourceName": "contracts/coin.sol",
  "abi": [
    {
      "inputs": [],
      "stateMutability": "nonpayable",
      "type": "constructor"
    },
    {
      "anonymous": false,
      "inputs": [
        {
          "indexed": false,
          "internalType": "address",
          "name": "from",
          "type": "address"
        },
        {
          "indexed": false,
          "internalType": "address",
          "name": "to",
          "type": "address"
        },
        {
          "indexed": false,
          "internalType": "uint256",
          "name": "amount",
          "type": "uint256"
        }
      ],
      "name": "Sent",
      "type": "event"
    },
    {
      "inputs": [
        {
          "internalType": "address",
          "name": "",
          "type": "address"
        }
      ],
      "name": "balances",
      "outputs": [
        {
          "internalType": "uint256",
          "name": "",
          "type": "uint256"
        }
      ],
      "stateMutability": "view",
      "type": "function"
    },
    {
      "inputs": [
        {
          "internalType": "address",
          "name": "account",
          "type": "address"
        }
      ],
      "name": "get_balance",
      "outputs": [
        {
          "internalType": "uint256",
          "name": "",
          "type": "uint256"
        }
      ],
      "stateMutability": "view",
      "type": "function"
    },
    {
      "inputs": [
        {
          "internalType": "address",
          "name": "receiver",
          "type": "address"
        },
        {
          "internalType": "uint256",
          "name": "amount",
          "type": "uint256"
        }
      ],
      "name": "mint",
      "outputs": [],
      "stateMutability": "nonpayable",
      "type": "function"
    },
    {
      "inputs": [],
      "name": "minter",
      "outputs": [
        {
          "internalType": "address",
          "name": "",
          "type": "address"
        }
      ],
      "stateMutability": "view",
      "type": "function"
    },
    {
      "inputs": [
        {
          "internalType": "address",
          "name": "receiver",
          "type": "address"
        },
        {
          "internalType": "uint256",
          "name": "amount",
          "type": "uint256"
        }
      ],
      "name": "send",
      "outputs": [],
      "stateMutability": "nonpayable",
      "type": "function"
    }
  ],
  "bytecode": "0x608060405234801561001057600080fd5b50336000806101000a81548173ffffffffffffffffffffffffffffffffffffffff021916908373ffffffffffffffffffffffffffffffffffffffff1602179055506106b3806100606000396000f3fe608060405234801561001057600080fd5b50600436106100575760003560e01c8063075461721461005c5780631e279a371461007a57806327e235e3146100aa57806340c10f19146100da578063d0679d34146100f6575b600080fd5b610064610112565b60405161007191906103f7565b60405180910390f35b610094600480360381019061008f9190610443565b610136565b6040516100a19190610489565b60405180910390f35b6100c460048036038101906100bf9190610443565b61017f565b6040516100d19190610489565b60405180910390f35b6100f460048036038101906100ef91906104d0565b610197565b005b610110600480360381019061010b91906104d0565b610249565b005b60008054906101000a900473ffffffffffffffffffffffffffffffffffffffff1681565b6000600160008373ffffffffffffffffffffffffffffffffffffffff1673ffffffffffffffffffffffffffffffffffffffff168152602001908152602001600020549050919050565b60016020528060005260406000206000915090505481565b60008054906101000a900473ffffffffffffffffffffffffffffffffffffffff1673ffffffffffffffffffffffffffffffffffffffff163373ffffffffffffffffffffffffffffffffffffffff16146101ef57600080fd5b80600160008473ffffffffffffffffffffffffffffffffffffffff1673ffffffffffffffffffffffffffffffffffffffff168152602001908152602001600020600082825461023e919061053f565b925050819055505050565b600160003373ffffffffffffffffffffffffffffffffffffffff1673ffffffffffffffffffffffffffffffffffffffff168152602001908152602001600020548111156102cb576040517f08c379a00000000000000000000000000000000000000000000000000000000081526004016102c2906105f2565b60405180910390fd5b80600160003373ffffffffffffffffffffffffffffffffffffffff1673ffffffffffffffffffffffffffffffffffffffff168152602001908152602001600020600082825461031a9190610612565b9250508190555080600160008473ffffffffffffffffffffffffffffffffffffffff1673ffffffffffffffffffffffffffffffffffffffff1681526020019081526020016000206000828254610370919061053f565b925050819055507f3990db2d31862302a685e8086b5755072a6e2b5b780af1ee81ece35ee3cd33453383836040516103aa93929190610646565b60405180910390a15050565b600073ffffffffffffffffffffffffffffffffffffffff82169050919050565b60006103e1826103b6565b9050919050565b6103f1816103d6565b82525050565b600060208201905061040c60008301846103e8565b92915050565b600080fd5b610420816103d6565b811461042b57600080fd5b50565b60008135905061043d81610417565b92915050565b60006020828403121561045957610458610412565b5b60006104678482850161042e565b91505092915050565b6000819050919050565b61048381610470565b82525050565b600060208201905061049e600083018461047a565b92915050565b6104ad81610470565b81146104b857600080fd5b50565b6000813590506104ca816104a4565b92915050565b600080604083850312156104e7576104e6610412565b5b60006104f58582860161042e565b9250506020610506858286016104bb565b9150509250929050565b7f4e487b7100000000000000000000000000000000000000000000000000000000600052601160045260246000fd5b600061054a82610470565b915061055583610470565b9250827fffffffffffffffffffffffffffffffffffffffffffffffffffffffffffffffff0382111561058a57610589610510565b5b828201905092915050565b600082825260208201905092915050565b7f496e73756666696369656e742062616c616e63652e0000000000000000000000600082015250565b60006105dc601583610595565b91506105e7826105a6565b602082019050919050565b6000602082019050818103600083015261060b816105cf565b9050919050565b600061061d82610470565b915061062883610470565b92508282101561063b5761063a610510565b5b828203905092915050565b600060608201905061065b60008301866103e8565b61066860208301856103e8565b610675604083018461047a565b94935050505056fea2646970667358221220000e694efb0969d79f71864910e2c7e76cd3fd249b40df7b2321fbce55cb477d64736f6c63430008090033",
  "linkReferences": {},
  "deployedLinkReferences": {}
}